{
  "_format": "hh-sol-artifact-1",
  "contractName": "NFT",
  "sourceName": "src/backend/contracts/NFT.sol",
  "abi": [
    {
      "inputs": [],
      "stateMutability": "nonpayable",
      "type": "constructor"
    },
    {
      "anonymous": false,
      "inputs": [
        {
          "indexed": true,
          "internalType": "address",
          "name": "owner",
          "type": "address"
        },
        {
          "indexed": true,
          "internalType": "address",
          "name": "approved",
          "type": "address"
        },
        {
          "indexed": true,
          "internalType": "uint256",
          "name": "tokenId",
          "type": "uint256"
        }
      ],
      "name": "Approval",
      "type": "event"
    },
    {
      "anonymous": false,
      "inputs": [
        {
          "indexed": true,
          "internalType": "address",
          "name": "owner",
          "type": "address"
        },
        {
          "indexed": true,
          "internalType": "address",
          "name": "operator",
          "type": "address"
        },
        {
          "indexed": false,
          "internalType": "bool",
          "name": "approved",
          "type": "bool"
        }
      ],
      "name": "ApprovalForAll",
      "type": "event"
    },
    {
      "anonymous": false,
      "inputs": [
        {
          "indexed": true,
          "internalType": "address",
          "name": "previousOwner",
          "type": "address"
        },
        {
          "indexed": true,
          "internalType": "address",
          "name": "newOwner",
          "type": "address"
        }
      ],
      "name": "OwnershipTransferred",
      "type": "event"
    },
    {
      "anonymous": false,
      "inputs": [
        {
          "indexed": true,
          "internalType": "address",
          "name": "from",
          "type": "address"
        },
        {
          "indexed": true,
          "internalType": "address",
          "name": "to",
          "type": "address"
        },
        {
          "indexed": true,
          "internalType": "uint256",
          "name": "tokenId",
          "type": "uint256"
        }
      ],
      "name": "Transfer",
      "type": "event"
    },
    {
      "inputs": [],
      "name": "COO_percentage",
      "outputs": [
        {
          "internalType": "uint8",
          "name": "",
          "type": "uint8"
        }
      ],
      "stateMutability": "view",
      "type": "function"
    },
    {
      "inputs": [],
      "name": "POC_COO",
      "outputs": [
        {
          "internalType": "address",
          "name": "",
          "type": "address"
        }
      ],
      "stateMutability": "view",
      "type": "function"
    },
    {
      "inputs": [
        {
          "internalType": "uint256",
          "name": "newPrice",
          "type": "uint256"
        }
      ],
      "name": "adjustPrice",
      "outputs": [],
      "stateMutability": "nonpayable",
      "type": "function"
    },
    {
      "inputs": [
        {
          "internalType": "address",
          "name": "to",
          "type": "address"
        },
        {
          "internalType": "uint256",
          "name": "tokenId",
          "type": "uint256"
        }
      ],
      "name": "approve",
      "outputs": [],
      "stateMutability": "nonpayable",
      "type": "function"
    },
    {
      "inputs": [
        {
          "internalType": "address",
          "name": "owner",
          "type": "address"
        }
      ],
      "name": "balanceOf",
      "outputs": [
        {
          "internalType": "uint256",
          "name": "",
          "type": "uint256"
        }
      ],
      "stateMutability": "view",
      "type": "function"
    },
    {
      "inputs": [
        {
          "internalType": "address",
          "name": "newCOO",
          "type": "address"
        }
      ],
      "name": "changeCOO",
      "outputs": [],
      "stateMutability": "nonpayable",
      "type": "function"
    },
    {
      "inputs": [
        {
          "internalType": "uint256",
          "name": "tokenId",
          "type": "uint256"
        }
      ],
      "name": "getApproved",
      "outputs": [
        {
          "internalType": "address",
          "name": "",
          "type": "address"
        }
      ],
      "stateMutability": "view",
      "type": "function"
    },
    {
      "inputs": [
        {
          "internalType": "address",
          "name": "owner",
          "type": "address"
        },
        {
          "internalType": "address",
          "name": "operator",
          "type": "address"
        }
      ],
      "name": "isApprovedForAll",
      "outputs": [
        {
          "internalType": "bool",
          "name": "",
          "type": "bool"
        }
      ],
      "stateMutability": "view",
      "type": "function"
    },
    {
      "inputs": [
        {
          "internalType": "string",
          "name": "plateInfo",
          "type": "string"
        },
        {
          "internalType": "string",
          "name": "_tokenURI",
          "type": "string"
        }
      ],
      "name": "mint",
      "outputs": [
        {
          "internalType": "uint256",
          "name": "",
          "type": "uint256"
        }
      ],
      "stateMutability": "payable",
      "type": "function"
    },
    {
      "inputs": [],
      "name": "name",
      "outputs": [
        {
          "internalType": "string",
          "name": "",
          "type": "string"
        }
      ],
      "stateMutability": "view",
      "type": "function"
    },
    {
      "inputs": [],
      "name": "owner",
      "outputs": [
        {
          "internalType": "address",
          "name": "",
          "type": "address"
        }
      ],
      "stateMutability": "view",
      "type": "function"
    },
    {
      "inputs": [
        {
          "internalType": "uint256",
          "name": "tokenId",
          "type": "uint256"
        }
      ],
      "name": "ownerOf",
      "outputs": [
        {
          "internalType": "address",
          "name": "",
          "type": "address"
        }
      ],
      "stateMutability": "view",
      "type": "function"
    },
    {
      "inputs": [
        {
          "internalType": "string",
          "name": "",
          "type": "string"
        }
      ],
      "name": "plateAlreadyExists",
      "outputs": [
        {
          "internalType": "bool",
          "name": "",
          "type": "bool"
        }
      ],
      "stateMutability": "view",
      "type": "function"
    },
    {
      "inputs": [],
      "name": "plateCount",
      "outputs": [
        {
          "internalType": "uint256",
          "name": "",
          "type": "uint256"
        }
      ],
      "stateMutability": "view",
      "type": "function"
    },
    {
      "inputs": [],
      "name": "platePrice",
      "outputs": [
        {
          "internalType": "uint256",
          "name": "",
          "type": "uint256"
        }
      ],
      "stateMutability": "view",
      "type": "function"
    },
    {
      "inputs": [
        {
          "internalType": "uint256",
          "name": "",
          "type": "uint256"
        }
      ],
      "name": "platesInfo",
      "outputs": [
        {
          "internalType": "string",
          "name": "",
          "type": "string"
        }
      ],
      "stateMutability": "view",
      "type": "function"
    },
    {
      "inputs": [
        {
          "internalType": "string",
          "name": "",
          "type": "string"
        }
      ],
      "name": "platesNumber",
      "outputs": [
        {
          "internalType": "uint256",
          "name": "",
          "type": "uint256"
        }
      ],
      "stateMutability": "view",
      "type": "function"
    },
    {
      "inputs": [],
      "name": "renounceOwnership",
      "outputs": [],
      "stateMutability": "nonpayable",
      "type": "function"
    },
    {
      "inputs": [
        {
          "internalType": "address",
          "name": "from",
          "type": "address"
        },
        {
          "internalType": "address",
          "name": "to",
          "type": "address"
        },
        {
          "internalType": "uint256",
          "name": "tokenId",
          "type": "uint256"
        }
      ],
      "name": "safeTransferFrom",
      "outputs": [],
      "stateMutability": "nonpayable",
      "type": "function"
    },
    {
      "inputs": [
        {
          "internalType": "address",
          "name": "from",
          "type": "address"
        },
        {
          "internalType": "address",
          "name": "to",
          "type": "address"
        },
        {
          "internalType": "uint256",
          "name": "tokenId",
          "type": "uint256"
        },
        {
          "internalType": "bytes",
          "name": "data",
          "type": "bytes"
        }
      ],
      "name": "safeTransferFrom",
      "outputs": [],
      "stateMutability": "nonpayable",
      "type": "function"
    },
    {
      "inputs": [
        {
          "internalType": "address",
          "name": "operator",
          "type": "address"
        },
        {
          "internalType": "bool",
          "name": "approved",
          "type": "bool"
        }
      ],
      "name": "setApprovalForAll",
      "outputs": [],
      "stateMutability": "nonpayable",
      "type": "function"
    },
    {
      "inputs": [
        {
          "internalType": "bytes4",
          "name": "interfaceId",
          "type": "bytes4"
        }
      ],
      "name": "supportsInterface",
      "outputs": [
        {
          "internalType": "bool",
          "name": "",
          "type": "bool"
        }
      ],
      "stateMutability": "view",
      "type": "function"
    },
    {
      "inputs": [],
      "name": "symbol",
      "outputs": [
        {
          "internalType": "string",
          "name": "",
          "type": "string"
        }
      ],
      "stateMutability": "view",
      "type": "function"
    },
    {
      "inputs": [
        {
          "internalType": "uint256",
          "name": "tokenId",
          "type": "uint256"
        }
      ],
      "name": "tokenURI",
      "outputs": [
        {
          "internalType": "string",
          "name": "",
          "type": "string"
        }
      ],
      "stateMutability": "view",
      "type": "function"
    },
    {
      "inputs": [
        {
          "internalType": "address",
          "name": "from",
          "type": "address"
        },
        {
          "internalType": "address",
          "name": "to",
          "type": "address"
        },
        {
          "internalType": "uint256",
          "name": "tokenId",
          "type": "uint256"
        }
      ],
      "name": "transferFrom",
      "outputs": [],
      "stateMutability": "nonpayable",
      "type": "function"
    },
    {
      "inputs": [
        {
          "internalType": "address",
          "name": "newOwner",
          "type": "address"
        }
      ],
      "name": "transferOwnership",
      "outputs": [],
      "stateMutability": "nonpayable",
      "type": "function"
    },
    {
      "inputs": [],
      "name": "withdrawPayments",
      "outputs": [],
      "stateMutability": "payable",
      "type": "function"
    }
  ],
  "bytecode": "0x608060405260016009556032600d60146101000a81548160ff021916908360ff1602179055503480156200003257600080fd5b506040518060400160405280600f81526020017f506c61746573206f6e20436861696e00000000000000000000000000000000008152506040518060400160405280600381526020017f504f4300000000000000000000000000000000000000000000000000000000008152508160009080519060200190620000b792919062000241565b508060019080519060200190620000d092919062000241565b505050620000f3620000e76200014960201b60201c565b6200015160201b60201c565b620001036200021760201b60201c565b600d60006101000a81548173ffffffffffffffffffffffffffffffffffffffff021916908373ffffffffffffffffffffffffffffffffffffffff16021790555062000356565b600033905090565b6000600760009054906101000a900473ffffffffffffffffffffffffffffffffffffffff16905081600760006101000a81548173ffffffffffffffffffffffffffffffffffffffff021916908373ffffffffffffffffffffffffffffffffffffffff1602179055508173ffffffffffffffffffffffffffffffffffffffff168173ffffffffffffffffffffffffffffffffffffffff167f8be0079c531659141344cd1fd0a4f28419497f9722a3daafe3b4186f6b6457e060405160405180910390a35050565b6000600760009054906101000a900473ffffffffffffffffffffffffffffffffffffffff16905090565b8280546200024f90620002f1565b90600052602060002090601f016020900481019282620002735760008555620002bf565b82601f106200028e57805160ff1916838001178555620002bf565b82800160010185558215620002bf579182015b82811115620002be578251825591602001919060010190620002a1565b5b509050620002ce9190620002d2565b5090565b5b80821115620002ed576000816000905550600101620002d3565b5090565b600060028204905060018216806200030a57607f821691505b6020821081141562000321576200032062000327565b5b50919050565b7f4e487b7100000000000000000000000000000000000000000000000000000000600052602260045260246000fd5b61374880620003666000396000f3fe60806040526004361061019c5760003560e01c8063715018a6116100ec578063b846d17a1161008a578063c569c2b111610064578063c569c2b1146105be578063c87b56dd146105e9578063e985e9c514610626578063f2fde38b146106635761019c565b8063b846d17a1461052f578063b872f4011461056c578063b88d4fde146105955761019c565b80638da5cb5b116100c65780638da5cb5b1461048557806395d89b41146104b0578063a22cb465146104db578063a2e918e2146105045761019c565b8063715018a61461041557806372bf079e1461042c5780638aa0fdad146104555761019c565b8063111455f11161015957806342842e0e1161013357806342842e0e146103685780636103d70b146103915780636352211e1461039b57806370a08231146103d85761019c565b8063111455f1146102d75780632309f6251461031457806323b872dd1461033f5761019c565b806301ffc9a7146101a15780630500848f146101de57806306fdde031461021b578063081812fc14610246578063095ea7b3146102835780630d455589146102ac575b600080fd5b3480156101ad57600080fd5b506101c860048036038101906101c3919061262c565b61068c565b6040516101d59190612b4b565b60405180910390f35b3480156101ea57600080fd5b506102056004803603810190610200919061272b565b61076e565b6040516102129190612b66565b60405180910390f35b34801561022757600080fd5b5061023061080e565b60405161023d9190612b66565b60405180910390f35b34801561025257600080fd5b5061026d6004803603810190610268919061272b565b6108a0565b60405161027a9190612ae4565b60405180910390f35b34801561028f57600080fd5b506102aa60048036038101906102a591906125f0565b6108e6565b005b3480156102b857600080fd5b506102c16109fe565b6040516102ce9190612dc8565b60405180910390f35b3480156102e357600080fd5b506102fe60048036038101906102f9919061267e565b610a04565b60405161030b9190612b4b565b60405180910390f35b34801561032057600080fd5b50610329610a3a565b6040516103369190612de3565b60405180910390f35b34801561034b57600080fd5b50610366600480360381019061036191906124ea565b610a4d565b005b34801561037457600080fd5b5061038f600480360381019061038a91906124ea565b610aad565b005b610399610acd565b005b3480156103a757600080fd5b506103c260048036038101906103bd919061272b565b610cfa565b6040516103cf9190612ae4565b60405180910390f35b3480156103e457600080fd5b506103ff60048036038101906103fa9190612485565b610dac565b60405161040c9190612dc8565b60405180910390f35b34801561042157600080fd5b5061042a610e64565b005b34801561043857600080fd5b50610453600480360381019061044e919061272b565b610e78565b005b61046f600480360381019061046a91906126bf565b610e8a565b60405161047c9190612dc8565b60405180910390f35b34801561049157600080fd5b5061049a611002565b6040516104a79190612ae4565b60405180910390f35b3480156104bc57600080fd5b506104c561102c565b6040516104d29190612b66565b60405180910390f35b3480156104e757600080fd5b5061050260048036038101906104fd91906125b4565b6110be565b005b34801561051057600080fd5b506105196110d4565b6040516105269190612dc8565b60405180910390f35b34801561053b57600080fd5b506105566004803603810190610551919061267e565b6110da565b6040516105639190612dc8565b60405180910390f35b34801561057857600080fd5b50610593600480360381019061058e9190612485565b611108565b005b3480156105a157600080fd5b506105bc60048036038101906105b79190612539565b611154565b005b3480156105ca57600080fd5b506105d36111b6565b6040516105e09190612ae4565b60405180910390f35b3480156105f557600080fd5b50610610600480360381019061060b919061272b565b6111dc565b60405161061d9190612b66565b60405180910390f35b34801561063257600080fd5b5061064d600480360381019061064891906124ae565b6112ef565b60405161065a9190612b4b565b60405180910390f35b34801561066f57600080fd5b5061068a60048036038101906106859190612485565b611383565b005b60007f80ac58cd000000000000000000000000000000000000000000000000000000007bffffffffffffffffffffffffffffffffffffffffffffffffffffffff1916827bffffffffffffffffffffffffffffffffffffffffffffffffffffffff1916148061075757507f5b5e139f000000000000000000000000000000000000000000000000000000007bffffffffffffffffffffffffffffffffffffffffffffffffffffffff1916827bffffffffffffffffffffffffffffffffffffffffffffffffffffffff1916145b80610767575061076682611407565b5b9050919050565b600c602052806000526040600020600091509050805461078d906130d4565b80601f01602080910402602001604051908101604052809291908181526020018280546107b9906130d4565b80156108065780601f106107db57610100808354040283529160200191610806565b820191906000526020600020905b8154815290600101906020018083116107e957829003601f168201915b505050505081565b60606000805461081d906130d4565b80601f0160208091040260200160405190810160405280929190818152602001828054610849906130d4565b80156108965780601f1061086b57610100808354040283529160200191610896565b820191906000526020600020905b81548152906001019060200180831161087957829003601f168201915b5050505050905090565b60006108ab82611471565b6004600083815260200190815260200160002060009054906101000a900473ffffffffffffffffffffffffffffffffffffffff169050919050565b60006108f182610cfa565b90508073ffffffffffffffffffffffffffffffffffffffff168373ffffffffffffffffffffffffffffffffffffffff161415610962576040517f08c379a000000000000000000000000000000000000000000000000000000000815260040161095990612d68565b60405180910390fd5b8073ffffffffffffffffffffffffffffffffffffffff166109816114bc565b73ffffffffffffffffffffffffffffffffffffffff1614806109b057506109af816109aa6114bc565b6112ef565b5b6109ef576040517f08c379a00000000000000000000000000000000000000000000000000000000081526004016109e690612ce8565b60405180910390fd5b6109f983836114c4565b505050565b60095481565b600a818051602081018201805184825260208301602085012081835280955050505050506000915054906101000a900460ff1681565b600d60149054906101000a900460ff1681565b610a5e610a586114bc565b8261157d565b610a9d576040517f08c379a0000000000000000000000000000000000000000000000000000000008152600401610a9490612da8565b60405180910390fd5b610aa8838383611612565b505050565b610ac883838360405180602001604052806000815250611154565b505050565b610ad5611002565b73ffffffffffffffffffffffffffffffffffffffff163373ffffffffffffffffffffffffffffffffffffffff161480610b5b5750600d60009054906101000a900473ffffffffffffffffffffffffffffffffffffffff1673ffffffffffffffffffffffffffffffffffffffff163373ffffffffffffffffffffffffffffffffffffffff16145b610b9a576040517f08c379a0000000000000000000000000000000000000000000000000000000008152600401610b9190612d88565b60405180910390fd5b600047905060008111610be2576040517f08c379a0000000000000000000000000000000000000000000000000000000008152600401610bd990612c68565b60405180910390fd5b600d60009054906101000a900473ffffffffffffffffffffffffffffffffffffffff1673ffffffffffffffffffffffffffffffffffffffff166108fc600d60149054906101000a900460ff1660ff16606484610c3e9190612f1e565b610c489190612f4f565b9081150290604051600060405180830381858888f19350505050158015610c73573d6000803e3d6000fd5b50610c7c611002565b73ffffffffffffffffffffffffffffffffffffffff166108fc600d60149054906101000a900460ff166064610cb19190612fdd565b60ff16606484610cc19190612f1e565b610ccb9190612f4f565b9081150290604051600060405180830381858888f19350505050158015610cf6573d6000803e3d6000fd5b5050565b6000806002600084815260200190815260200160002060009054906101000a900473ffffffffffffffffffffffffffffffffffffffff169050600073ffffffffffffffffffffffffffffffffffffffff168173ffffffffffffffffffffffffffffffffffffffff161415610da3576040517f08c379a0000000000000000000000000000000000000000000000000000000008152600401610d9a90612d48565b60405180910390fd5b80915050919050565b60008073ffffffffffffffffffffffffffffffffffffffff168273ffffffffffffffffffffffffffffffffffffffff161415610e1d576040517f08c379a0000000000000000000000000000000000000000000000000000000008152600401610e1490612c88565b60405180910390fd5b600360008373ffffffffffffffffffffffffffffffffffffffff1673ffffffffffffffffffffffffffffffffffffffff168152602001908152602001600020549050919050565b610e6c611879565b610e7660006118f7565b565b610e80611879565b8060098190555050565b6000801515600a84604051610e9f9190612aa9565b908152602001604051809103902060009054906101000a900460ff16151514610efd576040517f08c379a0000000000000000000000000000000000000000000000000000000008152600401610ef490612b88565b60405180910390fd5b6009543414610f41576040517f08c379a0000000000000000000000000000000000000000000000000000000008152600401610f3890612ca8565b60405180910390fd5b6001600a84604051610f539190612aa9565b908152602001604051809103902060006101000a81548160ff021916908315150217905550600854600b84604051610f8b9190612aa9565b90815260200160405180910390208190555082600c600060085481526020019081526020016000209080519060200190610fc69291906122a9565b50610fd3336008546119bd565b610fdf600854836119db565b60086000815480929190610ff290613137565b9190505550600854905092915050565b6000600760009054906101000a900473ffffffffffffffffffffffffffffffffffffffff16905090565b60606001805461103b906130d4565b80601f0160208091040260200160405190810160405280929190818152602001828054611067906130d4565b80156110b45780601f10611089576101008083540402835291602001916110b4565b820191906000526020600020905b81548152906001019060200180831161109757829003601f168201915b5050505050905090565b6110d06110c96114bc565b8383611a4f565b5050565b60085481565b600b818051602081018201805184825260208301602085012081835280955050505050506000915090505481565b611110611879565b80600d60006101000a81548173ffffffffffffffffffffffffffffffffffffffff021916908373ffffffffffffffffffffffffffffffffffffffff16021790555050565b61116561115f6114bc565b8361157d565b6111a4576040517f08c379a000000000000000000000000000000000000000000000000000000000815260040161119b90612da8565b60405180910390fd5b6111b084848484611bbc565b50505050565b600d60009054906101000a900473ffffffffffffffffffffffffffffffffffffffff1681565b60606111e782611471565b6000600660008481526020019081526020016000208054611207906130d4565b80601f0160208091040260200160405190810160405280929190818152602001828054611233906130d4565b80156112805780601f1061125557610100808354040283529160200191611280565b820191906000526020600020905b81548152906001019060200180831161126357829003601f168201915b505050505090506000611291611c18565b90506000815114156112a75781925050506112ea565b6000825111156112dc5780826040516020016112c4929190612ac0565b604051602081830303815290604052925050506112ea565b6112e584611c2f565b925050505b919050565b6000600560008473ffffffffffffffffffffffffffffffffffffffff1673ffffffffffffffffffffffffffffffffffffffff16815260200190815260200160002060008373ffffffffffffffffffffffffffffffffffffffff1673ffffffffffffffffffffffffffffffffffffffff16815260200190815260200160002060009054906101000a900460ff16905092915050565b61138b611879565b600073ffffffffffffffffffffffffffffffffffffffff168173ffffffffffffffffffffffffffffffffffffffff1614156113fb576040517f08c379a00000000000000000000000000000000000000000000000000000000081526004016113f290612bc8565b60405180910390fd5b611404816118f7565b50565b60007f01ffc9a7000000000000000000000000000000000000000000000000000000007bffffffffffffffffffffffffffffffffffffffffffffffffffffffff1916827bffffffffffffffffffffffffffffffffffffffffffffffffffffffff1916149050919050565b61147a81611c97565b6114b9576040517f08c379a00000000000000000000000000000000000000000000000000000000081526004016114b090612d48565b60405180910390fd5b50565b600033905090565b816004600083815260200190815260200160002060006101000a81548173ffffffffffffffffffffffffffffffffffffffff021916908373ffffffffffffffffffffffffffffffffffffffff160217905550808273ffffffffffffffffffffffffffffffffffffffff1661153783610cfa565b73ffffffffffffffffffffffffffffffffffffffff167f8c5be1e5ebec7d5bd14f71427d1e84f3dd0314c0f7b2291e5b200ac8c7c3b92560405160405180910390a45050565b60008061158983610cfa565b90508073ffffffffffffffffffffffffffffffffffffffff168473ffffffffffffffffffffffffffffffffffffffff1614806115cb57506115ca81856112ef565b5b8061160957508373ffffffffffffffffffffffffffffffffffffffff166115f1846108a0565b73ffffffffffffffffffffffffffffffffffffffff16145b91505092915050565b8273ffffffffffffffffffffffffffffffffffffffff1661163282610cfa565b73ffffffffffffffffffffffffffffffffffffffff1614611688576040517f08c379a000000000000000000000000000000000000000000000000000000000815260040161167f90612be8565b60405180910390fd5b600073ffffffffffffffffffffffffffffffffffffffff168273ffffffffffffffffffffffffffffffffffffffff1614156116f8576040517f08c379a00000000000000000000000000000000000000000000000000000000081526004016116ef90612c28565b60405180910390fd5b611703838383611d03565b61170e6000826114c4565b6001600360008573ffffffffffffffffffffffffffffffffffffffff1673ffffffffffffffffffffffffffffffffffffffff168152602001908152602001600020600082825461175e9190612fa9565b925050819055506001600360008473ffffffffffffffffffffffffffffffffffffffff1673ffffffffffffffffffffffffffffffffffffffff16815260200190815260200160002060008282546117b59190612ec8565b92505081905550816002600083815260200190815260200160002060006101000a81548173ffffffffffffffffffffffffffffffffffffffff021916908373ffffffffffffffffffffffffffffffffffffffff160217905550808273ffffffffffffffffffffffffffffffffffffffff168473ffffffffffffffffffffffffffffffffffffffff167fddf252ad1be2c89b69c2b068fc378daa952ba7f163c4a11628f55a4df523b3ef60405160405180910390a4611874838383611d08565b505050565b6118816114bc565b73ffffffffffffffffffffffffffffffffffffffff1661189f611002565b73ffffffffffffffffffffffffffffffffffffffff16146118f5576040517f08c379a00000000000000000000000000000000000000000000000000000000081526004016118ec90612d28565b60405180910390fd5b565b6000600760009054906101000a900473ffffffffffffffffffffffffffffffffffffffff16905081600760006101000a81548173ffffffffffffffffffffffffffffffffffffffff021916908373ffffffffffffffffffffffffffffffffffffffff1602179055508173ffffffffffffffffffffffffffffffffffffffff168173ffffffffffffffffffffffffffffffffffffffff167f8be0079c531659141344cd1fd0a4f28419497f9722a3daafe3b4186f6b6457e060405160405180910390a35050565b6119d7828260405180602001604052806000815250611d0d565b5050565b6119e482611c97565b611a23576040517f08c379a0000000000000000000000000000000000000000000000000000000008152600401611a1a90612cc8565b60405180910390fd5b80600660008481526020019081526020016000209080519060200190611a4a9291906122a9565b505050565b8173ffffffffffffffffffffffffffffffffffffffff168373ffffffffffffffffffffffffffffffffffffffff161415611abe576040517f08c379a0000000000000000000000000000000000000000000000000000000008152600401611ab590612c48565b60405180910390fd5b80600560008573ffffffffffffffffffffffffffffffffffffffff1673ffffffffffffffffffffffffffffffffffffffff16815260200190815260200160002060008473ffffffffffffffffffffffffffffffffffffffff1673ffffffffffffffffffffffffffffffffffffffff16815260200190815260200160002060006101000a81548160ff0219169083151502179055508173ffffffffffffffffffffffffffffffffffffffff168373ffffffffffffffffffffffffffffffffffffffff167f17307eab39ab6107e8899845ad3d59bd9653f200f220920489ca2b5937696c3183604051611baf9190612b4b565b60405180910390a3505050565b611bc7848484611612565b611bd384848484611d68565b611c12576040517f08c379a0000000000000000000000000000000000000000000000000000000008152600401611c0990612ba8565b60405180910390fd5b50505050565b606060405180602001604052806000815250905090565b6060611c3a82611471565b6000611c44611c18565b90506000815111611c645760405180602001604052806000815250611c8f565b80611c6e84611eff565b604051602001611c7f929190612ac0565b6040516020818303038152906040525b915050919050565b60008073ffffffffffffffffffffffffffffffffffffffff166002600084815260200190815260200160002060009054906101000a900473ffffffffffffffffffffffffffffffffffffffff1673ffffffffffffffffffffffffffffffffffffffff1614159050919050565b505050565b505050565b611d1783836120ac565b611d246000848484611d68565b611d63576040517f08c379a0000000000000000000000000000000000000000000000000000000008152600401611d5a90612ba8565b60405180910390fd5b505050565b6000611d898473ffffffffffffffffffffffffffffffffffffffff16612286565b15611ef2578373ffffffffffffffffffffffffffffffffffffffff1663150b7a02611db26114bc565b8786866040518563ffffffff1660e01b8152600401611dd49493929190612aff565b602060405180830381600087803b158015611dee57600080fd5b505af1925050508015611e1f57506040513d601f19601f82011682018060405250810190611e1c9190612655565b60015b611ea2573d8060008114611e4f576040519150601f19603f3d011682016040523d82523d6000602084013e611e54565b606091505b50600081511415611e9a576040517f08c379a0000000000000000000000000000000000000000000000000000000008152600401611e9190612ba8565b60405180910390fd5b805181602001fd5b63150b7a0260e01b7bffffffffffffffffffffffffffffffffffffffffffffffffffffffff1916817bffffffffffffffffffffffffffffffffffffffffffffffffffffffff191614915050611ef7565b600190505b949350505050565b60606000821415611f47576040518060400160405280600181526020017f300000000000000000000000000000000000000000000000000000000000000081525090506120a7565b600082905060005b60008214611f79578080611f6290613137565b915050600a82611f729190612f1e565b9150611f4f565b60008167ffffffffffffffff811115611fbb577f4e487b7100000000000000000000000000000000000000000000000000000000600052604160045260246000fd5b6040519080825280601f01601f191660200182016040528015611fed5781602001600182028036833780820191505090505b5090505b600085146120a0576001826120069190612fa9565b9150600a856120159190613180565b60306120219190612ec8565b60f81b81838151811061205d577f4e487b7100000000000000000000000000000000000000000000000000000000600052603260045260246000fd5b60200101907effffffffffffffffffffffffffffffffffffffffffffffffffffffffffffff1916908160001a905350600a856120999190612f1e565b9450611ff1565b8093505050505b919050565b600073ffffffffffffffffffffffffffffffffffffffff168273ffffffffffffffffffffffffffffffffffffffff16141561211c576040517f08c379a000000000000000000000000000000000000000000000000000000000815260040161211390612d08565b60405180910390fd5b61212581611c97565b15612165576040517f08c379a000000000000000000000000000000000000000000000000000000000815260040161215c90612c08565b60405180910390fd5b61217160008383611d03565b6001600360008473ffffffffffffffffffffffffffffffffffffffff1673ffffffffffffffffffffffffffffffffffffffff16815260200190815260200160002060008282546121c19190612ec8565b92505081905550816002600083815260200190815260200160002060006101000a81548173ffffffffffffffffffffffffffffffffffffffff021916908373ffffffffffffffffffffffffffffffffffffffff160217905550808273ffffffffffffffffffffffffffffffffffffffff16600073ffffffffffffffffffffffffffffffffffffffff167fddf252ad1be2c89b69c2b068fc378daa952ba7f163c4a11628f55a4df523b3ef60405160405180910390a461228260008383611d08565b5050565b6000808273ffffffffffffffffffffffffffffffffffffffff163b119050919050565b8280546122b5906130d4565b90600052602060002090601f0160209004810192826122d7576000855561231e565b82601f106122f057805160ff191683800117855561231e565b8280016001018555821561231e579182015b8281111561231d578251825591602001919060010190612302565b5b50905061232b919061232f565b5090565b5b80821115612348576000816000905550600101612330565b5090565b600061235f61235a84612e23565b612dfe565b90508281526020810184848401111561237757600080fd5b612382848285613092565b509392505050565b600061239d61239884612e54565b612dfe565b9050828152602081018484840111156123b557600080fd5b6123c0848285613092565b509392505050565b6000813590506123d7816136b6565b92915050565b6000813590506123ec816136cd565b92915050565b600081359050612401816136e4565b92915050565b600081519050612416816136e4565b92915050565b600082601f83011261242d57600080fd5b813561243d84826020860161234c565b91505092915050565b600082601f83011261245757600080fd5b813561246784826020860161238a565b91505092915050565b60008135905061247f816136fb565b92915050565b60006020828403121561249757600080fd5b60006124a5848285016123c8565b91505092915050565b600080604083850312156124c157600080fd5b60006124cf858286016123c8565b92505060206124e0858286016123c8565b9150509250929050565b6000806000606084860312156124ff57600080fd5b600061250d868287016123c8565b935050602061251e868287016123c8565b925050604061252f86828701612470565b9150509250925092565b6000806000806080858703121561254f57600080fd5b600061255d878288016123c8565b945050602061256e878288016123c8565b935050604061257f87828801612470565b925050606085013567ffffffffffffffff81111561259c57600080fd5b6125a88782880161241c565b91505092959194509250565b600080604083850312156125c757600080fd5b60006125d5858286016123c8565b92505060206125e6858286016123dd565b9150509250929050565b6000806040838503121561260357600080fd5b6000612611858286016123c8565b925050602061262285828601612470565b9150509250929050565b60006020828403121561263e57600080fd5b600061264c848285016123f2565b91505092915050565b60006020828403121561266757600080fd5b600061267584828501612407565b91505092915050565b60006020828403121561269057600080fd5b600082013567ffffffffffffffff8111156126aa57600080fd5b6126b684828501612446565b91505092915050565b600080604083850312156126d257600080fd5b600083013567ffffffffffffffff8111156126ec57600080fd5b6126f885828601612446565b925050602083013567ffffffffffffffff81111561271557600080fd5b61272185828601612446565b9150509250929050565b60006020828403121561273d57600080fd5b600061274b84828501612470565b91505092915050565b61275d81613011565b82525050565b61276c81613023565b82525050565b600061277d82612e85565b6127878185612e9b565b93506127978185602086016130a1565b6127a08161326d565b840191505092915050565b60006127b682612e90565b6127c08185612eac565b93506127d08185602086016130a1565b6127d98161326d565b840191505092915050565b60006127ef82612e90565b6127f98185612ebd565b93506128098185602086016130a1565b80840191505092915050565b6000612822601483612eac565b915061282d8261327e565b602082019050919050565b6000612845603283612eac565b9150612850826132a7565b604082019050919050565b6000612868602683612eac565b9150612873826132f6565b604082019050919050565b600061288b602583612eac565b915061289682613345565b604082019050919050565b60006128ae601c83612eac565b91506128b982613394565b602082019050919050565b60006128d1602483612eac565b91506128dc826133bd565b604082019050919050565b60006128f4601983612eac565b91506128ff8261340c565b602082019050919050565b6000612917601083612eac565b915061292282613435565b602082019050919050565b600061293a602983612eac565b91506129458261345e565b604082019050919050565b600061295d600c83612eac565b9150612968826134ad565b602082019050919050565b6000612980602e83612eac565b915061298b826134d6565b604082019050919050565b60006129a3603e83612eac565b91506129ae82613525565b604082019050919050565b60006129c6602083612eac565b91506129d182613574565b602082019050919050565b60006129e9602083612eac565b91506129f48261359d565b602082019050919050565b6000612a0c601883612eac565b9150612a17826135c6565b602082019050919050565b6000612a2f602183612eac565b9150612a3a826135ef565b604082019050919050565b6000612a52601483612eac565b9150612a5d8261363e565b602082019050919050565b6000612a75602e83612eac565b9150612a8082613667565b604082019050919050565b612a948161307b565b82525050565b612aa381613085565b82525050565b6000612ab582846127e4565b915081905092915050565b6000612acc82856127e4565b9150612ad882846127e4565b91508190509392505050565b6000602082019050612af96000830184612754565b92915050565b6000608082019050612b146000830187612754565b612b216020830186612754565b612b2e6040830185612a8b565b8181036060830152612b408184612772565b905095945050505050565b6000602082019050612b606000830184612763565b92915050565b60006020820190508181036000830152612b8081846127ab565b905092915050565b60006020820190508181036000830152612ba181612815565b9050919050565b60006020820190508181036000830152612bc181612838565b9050919050565b60006020820190508181036000830152612be18161285b565b9050919050565b60006020820190508181036000830152612c018161287e565b9050919050565b60006020820190508181036000830152612c21816128a1565b9050919050565b60006020820190508181036000830152612c41816128c4565b9050919050565b60006020820190508181036000830152612c61816128e7565b9050919050565b60006020820190508181036000830152612c818161290a565b9050919050565b60006020820190508181036000830152612ca18161292d565b9050919050565b60006020820190508181036000830152612cc181612950565b9050919050565b60006020820190508181036000830152612ce181612973565b9050919050565b60006020820190508181036000830152612d0181612996565b9050919050565b60006020820190508181036000830152612d21816129b9565b9050919050565b60006020820190508181036000830152612d41816129dc565b9050919050565b60006020820190508181036000830152612d61816129ff565b9050919050565b60006020820190508181036000830152612d8181612a22565b9050919050565b60006020820190508181036000830152612da181612a45565b9050919050565b60006020820190508181036000830152612dc181612a68565b9050919050565b6000602082019050612ddd6000830184612a8b565b92915050565b6000602082019050612df86000830184612a9a565b92915050565b6000612e08612e19565b9050612e148282613106565b919050565b6000604051905090565b600067ffffffffffffffff821115612e3e57612e3d61323e565b5b612e478261326d565b9050602081019050919050565b600067ffffffffffffffff821115612e6f57612e6e61323e565b5b612e788261326d565b9050602081019050919050565b600081519050919050565b600081519050919050565b600082825260208201905092915050565b600082825260208201905092915050565b600081905092915050565b6000612ed38261307b565b9150612ede8361307b565b9250827fffffffffffffffffffffffffffffffffffffffffffffffffffffffffffffffff03821115612f1357612f126131b1565b5b828201905092915050565b6000612f298261307b565b9150612f348361307b565b925082612f4457612f436131e0565b5b828204905092915050565b6000612f5a8261307b565b9150612f658361307b565b9250817fffffffffffffffffffffffffffffffffffffffffffffffffffffffffffffffff0483118215151615612f9e57612f9d6131b1565b5b828202905092915050565b6000612fb48261307b565b9150612fbf8361307b565b925082821015612fd257612fd16131b1565b5b828203905092915050565b6000612fe882613085565b9150612ff383613085565b925082821015613006576130056131b1565b5b828203905092915050565b600061301c8261305b565b9050919050565b60008115159050919050565b60007fffffffff0000000000000000000000000000000000000000000000000000000082169050919050565b600073ffffffffffffffffffffffffffffffffffffffff82169050919050565b6000819050919050565b600060ff82169050919050565b82818337600083830152505050565b60005b838110156130bf5780820151818401526020810190506130a4565b838111156130ce576000848401525b50505050565b600060028204905060018216806130ec57607f821691505b60208210811415613100576130ff61320f565b5b50919050565b61310f8261326d565b810181811067ffffffffffffffff8211171561312e5761312d61323e565b5b80604052505050565b60006131428261307b565b91507fffffffffffffffffffffffffffffffffffffffffffffffffffffffffffffffff821415613175576131746131b1565b5b600182019050919050565b600061318b8261307b565b91506131968361307b565b9250826131a6576131a56131e0565b5b828206905092915050565b7f4e487b7100000000000000000000000000000000000000000000000000000000600052601160045260246000fd5b7f4e487b7100000000000000000000000000000000000000000000000000000000600052601260045260246000fd5b7f4e487b7100000000000000000000000000000000000000000000000000000000600052602260045260246000fd5b7f4e487b7100000000000000000000000000000000000000000000000000000000600052604160045260246000fd5b6000601f19601f8301169050919050565b7f506c61746520416c726561647920457869737473000000000000000000000000600082015250565b7f4552433732313a207472616e7366657220746f206e6f6e20455243373231526560008201527f63656976657220696d706c656d656e7465720000000000000000000000000000602082015250565b7f4f776e61626c653a206e6577206f776e657220697320746865207a65726f206160008201527f6464726573730000000000000000000000000000000000000000000000000000602082015250565b7f4552433732313a207472616e736665722066726f6d20696e636f72726563742060008201527f6f776e6572000000000000000000000000000000000000000000000000000000602082015250565b7f4552433732313a20746f6b656e20616c7265616479206d696e74656400000000600082015250565b7f4552433732313a207472616e7366657220746f20746865207a65726f2061646460008201527f7265737300000000000000000000000000000000000000000000000000000000602082015250565b7f4552433732313a20617070726f766520746f2063616c6c657200000000000000600082015250565b7f42616c616e6365206973207a65726f2100000000000000000000000000000000600082015250565b7f4552433732313a2061646472657373207a65726f206973206e6f74206120766160008201527f6c6964206f776e65720000000000000000000000000000000000000000000000602082015250565b7f416d6f756e74204572726f720000000000000000000000000000000000000000600082015250565b7f45524337323155524953746f726167653a2055524920736574206f66206e6f6e60008201527f6578697374656e7420746f6b656e000000000000000000000000000000000000602082015250565b7f4552433732313a20617070726f76652063616c6c6572206973206e6f7420746f60008201527f6b656e206f776e6572206e6f7220617070726f76656420666f7220616c6c0000602082015250565b7f4552433732313a206d696e7420746f20746865207a65726f2061646472657373600082015250565b7f4f776e61626c653a2063616c6c6572206973206e6f7420746865206f776e6572600082015250565b7f4552433732313a20696e76616c696420746f6b656e2049440000000000000000600082015250565b7f4552433732313a20617070726f76616c20746f2063757272656e74206f776e6560008201527f7200000000000000000000000000000000000000000000000000000000000000602082015250565b7f55736572206e6f7420617574686f72697a656421000000000000000000000000600082015250565b7f4552433732313a2063616c6c6572206973206e6f7420746f6b656e206f776e6560008201527f72206e6f7220617070726f766564000000000000000000000000000000000000602082015250565b6136bf81613011565b81146136ca57600080fd5b50565b6136d681613023565b81146136e157600080fd5b50565b6136ed8161302f565b81146136f857600080fd5b50565b6137048161307b565b811461370f57600080fd5b5056fea26469706673582212200826b4dcba081142a2a52d2fd968f6ebbce06524869f44bdcfb77355b4fa7ccc64736f6c63430008040033",
  "linkReferences": {},
  "deployedLinkReferences": {}
}